{
  "contractName": "Voting",
  "abi": [
    {
      "inputs": [],
      "stateMutability": "nonpayable",
      "type": "constructor"
    },
    {
      "inputs": [
        {
          "internalType": "address",
          "name": "owner",
          "type": "address"
        }
      ],
      "name": "OwnableInvalidOwner",
      "type": "error"
    },
    {
      "inputs": [
        {
          "internalType": "address",
          "name": "account",
          "type": "address"
        }
      ],
      "name": "OwnableUnauthorizedAccount",
      "type": "error"
    },
    {
      "anonymous": false,
      "inputs": [
        {
          "indexed": true,
          "internalType": "address",
          "name": "previousOwner",
          "type": "address"
        },
        {
          "indexed": true,
          "internalType": "address",
          "name": "newOwner",
          "type": "address"
        }
      ],
      "name": "OwnershipTransferred",
      "type": "event"
    },
    {
      "anonymous": false,
      "inputs": [
        {
          "indexed": false,
          "internalType": "uint256",
          "name": "proposalId",
          "type": "uint256"
        }
      ],
      "name": "ProposalRegistered",
      "type": "event"
    },
    {
      "anonymous": false,
      "inputs": [
        {
          "indexed": true,
          "internalType": "address",
          "name": "voter",
          "type": "address"
        },
        {
          "indexed": false,
          "internalType": "uint256",
          "name": "proposalId",
          "type": "uint256"
        }
      ],
      "name": "Voted",
      "type": "event"
    },
    {
      "anonymous": false,
      "inputs": [
        {
          "indexed": true,
          "internalType": "address",
          "name": "voterAddress",
          "type": "address"
        }
      ],
      "name": "VoterRegistered",
      "type": "event"
    },
    {
      "anonymous": false,
      "inputs": [
        {
          "indexed": false,
          "internalType": "enum Voting.WorkflowStatus",
          "name": "previousStatus",
          "type": "uint8"
        },
        {
          "indexed": false,
          "internalType": "enum Voting.WorkflowStatus",
          "name": "newStatus",
          "type": "uint8"
        }
      ],
      "name": "WorkflowStatusChange",
      "type": "event"
    },
    {
      "inputs": [],
      "name": "owner",
      "outputs": [
        {
          "internalType": "address",
          "name": "",
          "type": "address"
        }
      ],
      "stateMutability": "view",
      "type": "function",
      "constant": true
    },
    {
      "inputs": [
        {
          "internalType": "uint256",
          "name": "",
          "type": "uint256"
        }
      ],
      "name": "proposals",
      "outputs": [
        {
          "internalType": "string",
          "name": "description",
          "type": "string"
        },
        {
          "internalType": "uint256",
          "name": "voteCount",
          "type": "uint256"
        }
      ],
      "stateMutability": "view",
      "type": "function",
      "constant": true
    },
    {
      "inputs": [],
      "name": "renounceOwnership",
      "outputs": [],
      "stateMutability": "nonpayable",
      "type": "function"
    },
    {
      "inputs": [
        {
          "internalType": "address",
          "name": "newOwner",
          "type": "address"
        }
      ],
      "name": "transferOwnership",
      "outputs": [],
      "stateMutability": "nonpayable",
      "type": "function"
    },
    {
      "inputs": [
        {
          "internalType": "address",
          "name": "",
          "type": "address"
        }
      ],
      "name": "voters",
      "outputs": [
        {
          "internalType": "bool",
          "name": "isRegistered",
          "type": "bool"
        },
        {
          "internalType": "bool",
          "name": "hasVoted",
          "type": "bool"
        },
        {
          "internalType": "uint256",
          "name": "votedProposalId",
          "type": "uint256"
        }
      ],
      "stateMutability": "view",
      "type": "function",
      "constant": true
    },
    {
      "inputs": [],
      "name": "winningProposalId",
      "outputs": [
        {
          "internalType": "uint256",
          "name": "",
          "type": "uint256"
        }
      ],
      "stateMutability": "view",
      "type": "function",
      "constant": true
    },
    {
      "inputs": [],
      "name": "workflowStatus",
      "outputs": [
        {
          "internalType": "enum Voting.WorkflowStatus",
          "name": "",
          "type": "uint8"
        }
      ],
      "stateMutability": "view",
      "type": "function",
      "constant": true
    },
    {
      "inputs": [
        {
          "internalType": "address",
          "name": "_voterAddress",
          "type": "address"
        }
      ],
      "name": "registerVoter",
      "outputs": [],
      "stateMutability": "nonpayable",
      "type": "function"
    },
    {
      "inputs": [],
      "name": "startProposalsRegistration",
      "outputs": [],
      "stateMutability": "nonpayable",
      "type": "function"
    },
    {
      "inputs": [
        {
          "internalType": "string",
          "name": "_description",
          "type": "string"
        }
      ],
      "name": "registerProposal",
      "outputs": [],
      "stateMutability": "nonpayable",
      "type": "function"
    },
    {
      "inputs": [],
      "name": "endProposalsRegistration",
      "outputs": [],
      "stateMutability": "nonpayable",
      "type": "function"
    },
    {
      "inputs": [],
      "name": "startVotingSession",
      "outputs": [],
      "stateMutability": "nonpayable",
      "type": "function"
    },
    {
      "inputs": [
        {
          "internalType": "uint256",
          "name": "_proposalId",
          "type": "uint256"
        }
      ],
      "name": "vote",
      "outputs": [],
      "stateMutability": "nonpayable",
      "type": "function"
    },
    {
      "inputs": [],
      "name": "endVotingSession",
      "outputs": [],
      "stateMutability": "nonpayable",
      "type": "function"
    },
    {
      "inputs": [],
      "name": "tallyVotes",
      "outputs": [],
      "stateMutability": "nonpayable",
      "type": "function"
    },
    {
      "inputs": [],
      "name": "getWinner",
      "outputs": [
        {
          "internalType": "uint256",
          "name": "",
          "type": "uint256"
        }
      ],
      "stateMutability": "view",
      "type": "function",
      "constant": true
    },
    {
      "inputs": [],
      "name": "resetContract",
      "outputs": [],
      "stateMutability": "nonpayable",
      "type": "function"
    }
  ],
  "bytecode": "0x608060405234801562000010575f80fd5b50335f73ffffffffffffffffffffffffffffffffffffffff168173ffffffffffffffffffffffffffffffffffffffff160362000085575f6040517f1e4fbdf70000000000000000000000000000000000000000000000000000000081526004016200007c9190620001cd565b60405180910390fd5b6200009681620000c960201b60201c565b505f8060146101000a81548160ff02191690836005811115620000be57620000bd620001e8565b5b021790555062000215565b5f805f9054906101000a900473ffffffffffffffffffffffffffffffffffffffff169050815f806101000a81548173ffffffffffffffffffffffffffffffffffffffff021916908373ffffffffffffffffffffffffffffffffffffffff1602179055508173ffffffffffffffffffffffffffffffffffffffff168173ffffffffffffffffffffffffffffffffffffffff167f8be0079c531659141344cd1fd0a4f28419497f9722a3daafe3b4186f6b6457e060405160405180910390a35050565b5f73ffffffffffffffffffffffffffffffffffffffff82169050919050565b5f620001b5826200018a565b9050919050565b620001c781620001a9565b82525050565b5f602082019050620001e25f830184620001bc565b92915050565b7f4e487b71000000000000000000000000000000000000000000000000000000005f52602160045260245ffd5b611e5480620002235f395ff3fe608060405234801561000f575f80fd5b5060043610610109575f3560e01c80638e7ea5b2116100a0578063b181a8fc1161006f578063b181a8fc14610246578063c64963c514610250578063e09b8c791461026e578063ee74c67814610278578063f2fde38b1461028257610109565b80638e7ea5b2146101ce578063a1edffa2146101ec578063a3ec138d1461020a578063a7bfab161461023c57610109565b806338db6dd3116100dc57806338db6dd3146101805780636c2974451461019c578063715018a6146101a65780638da5cb5b146101b057610109565b80630121b93f1461010d578063013cf08b146101295780632f95355b1461015a578063378a217814610176575b5f80fd5b61012760048036038101906101229190611356565b61029e565b005b610143600480360381019061013e9190611356565b610523565b60405161015192919061141a565b60405180910390f35b610174600480360381019061016f9190611574565b6105d8565b005b61017e610782565b005b61019a60048036038101906101959190611615565b6108e6565b005b6101a4610a8d565b005b6101ae610b73565b005b6101b8610b86565b6040516101c5919061164f565b60405180910390f35b6101d6610bad565b6040516101e39190611668565b60405180910390f35b6101f4610c2a565b60405161020191906116f4565b60405180910390f35b610224600480360381019061021f9190611615565b610c3c565b60405161023393929190611727565b60405180910390f35b610244610c7a565b005b61024e610d60565b005b610258610f17565b6040516102659190611668565b60405180910390f35b610276610f1d565b005b610280611001565b005b61029c60048036038101906102979190611615565b6110e7565b005b60025f3373ffffffffffffffffffffffffffffffffffffffff1673ffffffffffffffffffffffffffffffffffffffff1681526020019081526020015f205f015f9054906101000a900460ff16610329576040517f08c379a0000000000000000000000000000000000000000000000000000000008152600401610320906117a6565b60405180910390fd5b60025f3373ffffffffffffffffffffffffffffffffffffffff1673ffffffffffffffffffffffffffffffffffffffff1681526020019081526020015f205f0160019054906101000a900460ff16156103b6576040517f08c379a00000000000000000000000000000000000000000000000000000000081526004016103ad9061180e565b60405180910390fd5b60038054905081106103fd576040517f08c379a00000000000000000000000000000000000000000000000000000000081526004016103f490611876565b60405180910390fd5b600160025f3373ffffffffffffffffffffffffffffffffffffffff1673ffffffffffffffffffffffffffffffffffffffff1681526020019081526020015f205f0160016101000a81548160ff0219169083151502179055508060025f3373ffffffffffffffffffffffffffffffffffffffff1673ffffffffffffffffffffffffffffffffffffffff1681526020019081526020015f2060010181905550600381815481106104ae576104ad611894565b5b905f5260205f2090600202016001015f8154809291906104cd906118ee565b91905055503373ffffffffffffffffffffffffffffffffffffffff167f4d99b957a2bc29a30ebd96a7be8e68fe50a3c701db28a91436490b7d53870ca4826040516105189190611668565b60405180910390a250565b60038181548110610532575f80fd5b905f5260205f2090600202015f91509050805f01805461055190611962565b80601f016020809104026020016040519081016040528092919081815260200182805461057d90611962565b80156105c85780601f1061059f576101008083540402835291602001916105c8565b820191905f5260205f20905b8154815290600101906020018083116105ab57829003601f168201915b5050505050908060010154905082565b60018060058111156105ed576105ec611681565b5b5f60149054906101000a900460ff16600581111561060e5761060d611681565b5b1461064e576040517f08c379a0000000000000000000000000000000000000000000000000000000008152600401610645906119dc565b60405180910390fd5b60025f3373ffffffffffffffffffffffffffffffffffffffff1673ffffffffffffffffffffffffffffffffffffffff1681526020019081526020015f205f015f9054906101000a900460ff166106d9576040517f08c379a00000000000000000000000000000000000000000000000000000000081526004016106d0906117a6565b60405180910390fd5b600360405180604001604052808481526020015f815250908060018154018082558091505060019003905f5260205f2090600202015f909190919091505f820151815f0190816107299190611b97565b506020820151816001015550507f92e393e9b54e2f801d3ea4beb0c5e71a21cc34a5d34b77d0fb8a3aa1650dc18f60016003805490506107699190611c66565b6040516107769190611668565b60405180910390a15050565b61078a61116b565b600480600581111561079f5761079e611681565b5b5f60149054906101000a900460ff1660058111156107c0576107bf611681565b5b14610800576040517f08c379a00000000000000000000000000000000000000000000000000000000081526004016107f7906119dc565b60405180910390fd5b5f805b60038054905081101561087c57816003828154811061082557610824611894565b5b905f5260205f209060020201600101541115610869576003818154811061084f5761084e611894565b5b905f5260205f209060020201600101549150806001819055505b8080610874906118ee565b915050610803565b5060055f60146101000a81548160ff021916908360058111156108a2576108a1611681565b5b02179055507f0a97a4ee45751e2abf3e4fc8946939630b11b371ea8ae39ccdc3056e98f5cc3f600460056040516108da929190611c99565b60405180910390a15050565b6108ee61116b565b5f80600581111561090257610901611681565b5b5f60149054906101000a900460ff16600581111561092357610922611681565b5b14610963576040517f08c379a000000000000000000000000000000000000000000000000000000000815260040161095a906119dc565b60405180910390fd5b60025f8373ffffffffffffffffffffffffffffffffffffffff1673ffffffffffffffffffffffffffffffffffffffff1681526020019081526020015f205f015f9054906101000a900460ff16156109ef576040517f08c379a00000000000000000000000000000000000000000000000000000000081526004016109e690611d0a565b60405180910390fd5b600160025f8473ffffffffffffffffffffffffffffffffffffffff1673ffffffffffffffffffffffffffffffffffffffff1681526020019081526020015f205f015f6101000a81548160ff0219169083151502179055508173ffffffffffffffffffffffffffffffffffffffff167fb6be2187d059cc2a55fe29e0e503b566e1e0f8c8780096e185429350acffd3dd60405160405180910390a25050565b610a9561116b565b6001806005811115610aaa57610aa9611681565b5b5f60149054906101000a900460ff166005811115610acb57610aca611681565b5b14610b0b576040517f08c379a0000000000000000000000000000000000000000000000000000000008152600401610b02906119dc565b60405180910390fd5b60025f60146101000a81548160ff02191690836005811115610b3057610b2f611681565b5b02179055507f0a97a4ee45751e2abf3e4fc8946939630b11b371ea8ae39ccdc3056e98f5cc3f60016002604051610b68929190611c99565b60405180910390a150565b610b7b61116b565b610b845f6111f2565b565b5f805f9054906101000a900473ffffffffffffffffffffffffffffffffffffffff16905090565b5f600580811115610bc157610bc0611681565b5b5f60149054906101000a900460ff166005811115610be257610be1611681565b5b14610c22576040517f08c379a0000000000000000000000000000000000000000000000000000000008152600401610c1990611d72565b60405180910390fd5b600154905090565b5f60149054906101000a900460ff1681565b6002602052805f5260405f205f91509050805f015f9054906101000a900460ff1690805f0160019054906101000a900460ff16908060010154905083565b610c8261116b565b6003806005811115610c9757610c96611681565b5b5f60149054906101000a900460ff166005811115610cb857610cb7611681565b5b14610cf8576040517f08c379a0000000000000000000000000000000000000000000000000000000008152600401610cef906119dc565b60405180910390fd5b60045f60146101000a81548160ff02191690836005811115610d1d57610d1c611681565b5b02179055507f0a97a4ee45751e2abf3e4fc8946939630b11b371ea8ae39ccdc3056e98f5cc3f60036004604051610d55929190611c99565b60405180910390a150565b610d6861116b565b600580811115610d7b57610d7a611681565b5b5f60149054906101000a900460ff166005811115610d9c57610d9b611681565b5b14610ddc576040517f08c379a0000000000000000000000000000000000000000000000000000000008152600401610dd390611e00565b60405180910390fd5b5f5b600380549050811015610e365760038181548110610dff57610dfe611894565b5b905f5260205f2090600202015f8082015f610e1a91906112ba565b600182015f905550508080610e2e906118ee565b915050610dde565b505f60038054905090505f5b81811015610ea9575f60038281548110610e5f57610e5e611894565b5b905f5260205f209060020201905060405180602001604052805f815250815f019081610e8b9190611b97565b505f8160010181905550508080610ea1906118ee565b915050610e42565b505f6001819055505f8060146101000a81548160ff02191690836005811115610ed557610ed4611681565b5b02179055507f0a97a4ee45751e2abf3e4fc8946939630b11b371ea8ae39ccdc3056e98f5cc3f60055f604051610f0c929190611c99565b60405180910390a150565b60015481565b610f2561116b565b5f806005811115610f3957610f38611681565b5b5f60149054906101000a900460ff166005811115610f5a57610f59611681565b5b14610f9a576040517f08c379a0000000000000000000000000000000000000000000000000000000008152600401610f91906119dc565b60405180910390fd5b60015f60146101000a81548160ff02191690836005811115610fbf57610fbe611681565b5b02179055507f0a97a4ee45751e2abf3e4fc8946939630b11b371ea8ae39ccdc3056e98f5cc3f5f6001604051610ff6929190611c99565b60405180910390a150565b61100961116b565b600280600581111561101e5761101d611681565b5b5f60149054906101000a900460ff16600581111561103f5761103e611681565b5b1461107f576040517f08c379a0000000000000000000000000000000000000000000000000000000008152600401611076906119dc565b60405180910390fd5b60035f60146101000a81548160ff021916908360058111156110a4576110a3611681565b5b02179055507f0a97a4ee45751e2abf3e4fc8946939630b11b371ea8ae39ccdc3056e98f5cc3f600260036040516110dc929190611c99565b60405180910390a150565b6110ef61116b565b5f73ffffffffffffffffffffffffffffffffffffffff168173ffffffffffffffffffffffffffffffffffffffff160361115f575f6040517f1e4fbdf7000000000000000000000000000000000000000000000000000000008152600401611156919061164f565b60405180910390fd5b611168816111f2565b50565b6111736112b3565b73ffffffffffffffffffffffffffffffffffffffff16611191610b86565b73ffffffffffffffffffffffffffffffffffffffff16146111f0576111b46112b3565b6040517f118cdaa70000000000000000000000000000000000000000000000000000000081526004016111e7919061164f565b60405180910390fd5b565b5f805f9054906101000a900473ffffffffffffffffffffffffffffffffffffffff169050815f806101000a81548173ffffffffffffffffffffffffffffffffffffffff021916908373ffffffffffffffffffffffffffffffffffffffff1602179055508173ffffffffffffffffffffffffffffffffffffffff168173ffffffffffffffffffffffffffffffffffffffff167f8be0079c531659141344cd1fd0a4f28419497f9722a3daafe3b4186f6b6457e060405160405180910390a35050565b5f33905090565b5080546112c690611962565b5f825580601f106112d757506112f4565b601f0160209004905f5260205f20908101906112f391906112f7565b5b50565b5b8082111561130e575f815f9055506001016112f8565b5090565b5f604051905090565b5f80fd5b5f80fd5b5f819050919050565b61133581611323565b811461133f575f80fd5b50565b5f813590506113508161132c565b92915050565b5f6020828403121561136b5761136a61131b565b5b5f61137884828501611342565b91505092915050565b5f81519050919050565b5f82825260208201905092915050565b5f5b838110156113b857808201518184015260208101905061139d565b5f8484015250505050565b5f601f19601f8301169050919050565b5f6113dd82611381565b6113e7818561138b565b93506113f781856020860161139b565b611400816113c3565b840191505092915050565b61141481611323565b82525050565b5f6040820190508181035f83015261143281856113d3565b9050611441602083018461140b565b9392505050565b5f80fd5b5f80fd5b7f4e487b71000000000000000000000000000000000000000000000000000000005f52604160045260245ffd5b611486826113c3565b810181811067ffffffffffffffff821117156114a5576114a4611450565b5b80604052505050565b5f6114b7611312565b90506114c3828261147d565b919050565b5f67ffffffffffffffff8211156114e2576114e1611450565b5b6114eb826113c3565b9050602081019050919050565b828183375f83830152505050565b5f611518611513846114c8565b6114ae565b9050828152602081018484840111156115345761153361144c565b5b61153f8482856114f8565b509392505050565b5f82601f83011261155b5761155a611448565b5b813561156b848260208601611506565b91505092915050565b5f602082840312156115895761158861131b565b5b5f82013567ffffffffffffffff8111156115a6576115a561131f565b5b6115b284828501611547565b91505092915050565b5f73ffffffffffffffffffffffffffffffffffffffff82169050919050565b5f6115e4826115bb565b9050919050565b6115f4816115da565b81146115fe575f80fd5b50565b5f8135905061160f816115eb565b92915050565b5f6020828403121561162a5761162961131b565b5b5f61163784828501611601565b91505092915050565b611649816115da565b82525050565b5f6020820190506116625f830184611640565b92915050565b5f60208201905061167b5f83018461140b565b92915050565b7f4e487b71000000000000000000000000000000000000000000000000000000005f52602160045260245ffd5b600681106116bf576116be611681565b5b50565b5f8190506116cf826116ae565b919050565b5f6116de826116c2565b9050919050565b6116ee816116d4565b82525050565b5f6020820190506117075f8301846116e5565b92915050565b5f8115159050919050565b6117218161170d565b82525050565b5f60608201905061173a5f830186611718565b6117476020830185611718565b611754604083018461140b565b949350505050565b7f53656e646572206973206e6f742061207265676973746572656420766f7465725f82015250565b5f61179060208361138b565b915061179b8261175c565b602082019050919050565b5f6020820190508181035f8301526117bd81611784565b9050919050565b7f53656e6465722068617320616c726561647920766f74656400000000000000005f82015250565b5f6117f860188361138b565b9150611803826117c4565b602082019050919050565b5f6020820190508181035f830152611825816117ec565b9050919050565b7f496e76616c69642070726f706f73616c204944000000000000000000000000005f82015250565b5f61186060138361138b565b915061186b8261182c565b602082019050919050565b5f6020820190508181035f83015261188d81611854565b9050919050565b7f4e487b71000000000000000000000000000000000000000000000000000000005f52603260045260245ffd5b7f4e487b71000000000000000000000000000000000000000000000000000000005f52601160045260245ffd5b5f6118f882611323565b91507fffffffffffffffffffffffffffffffffffffffffffffffffffffffffffffffff820361192a576119296118c1565b5b600182019050919050565b7f4e487b71000000000000000000000000000000000000000000000000000000005f52602260045260245ffd5b5f600282049050600182168061197957607f821691505b60208210810361198c5761198b611935565b5b50919050565b7f496e76616c696420776f726b666c6f77207374617475730000000000000000005f82015250565b5f6119c660178361138b565b91506119d182611992565b602082019050919050565b5f6020820190508181035f8301526119f3816119ba565b9050919050565b5f819050815f5260205f209050919050565b5f6020601f8301049050919050565b5f82821b905092915050565b5f60088302611a567fffffffffffffffffffffffffffffffffffffffffffffffffffffffffffffffff82611a1b565b611a608683611a1b565b95508019841693508086168417925050509392505050565b5f819050919050565b5f611a9b611a96611a9184611323565b611a78565b611323565b9050919050565b5f819050919050565b611ab483611a81565b611ac8611ac082611aa2565b848454611a27565b825550505050565b5f90565b611adc611ad0565b611ae7818484611aab565b505050565b5b81811015611b0a57611aff5f82611ad4565b600181019050611aed565b5050565b601f821115611b4f57611b20816119fa565b611b2984611a0c565b81016020851015611b38578190505b611b4c611b4485611a0c565b830182611aec565b50505b505050565b5f82821c905092915050565b5f611b6f5f1984600802611b54565b1980831691505092915050565b5f611b878383611b60565b9150826002028217905092915050565b611ba082611381565b67ffffffffffffffff811115611bb957611bb8611450565b5b611bc38254611962565b611bce828285611b0e565b5f60209050601f831160018114611bff575f8415611bed578287015190505b611bf78582611b7c565b865550611c5e565b601f198416611c0d866119fa565b5f5b82811015611c3457848901518255600182019150602085019450602081019050611c0f565b86831015611c515784890151611c4d601f891682611b60565b8355505b6001600288020188555050505b505050505050565b5f611c7082611323565b9150611c7b83611323565b9250828203905081811115611c9357611c926118c1565b5b92915050565b5f604082019050611cac5f8301856116e5565b611cb960208301846116e5565b9392505050565b7f566f74657220616c7265616479207265676973746572656400000000000000005f82015250565b5f611cf460188361138b565b9150611cff82611cc0565b602082019050919050565b5f6020820190508181035f830152611d2181611ce8565b9050919050565b7f566f7465732068617665206e6f74206265656e2074616c6c69656420796574005f82015250565b5f611d5c601f8361138b565b9150611d6782611d28565b602082019050919050565b5f6020820190508181035f830152611d8981611d50565b9050919050565b7f43616e6e6f7420726573657420696e207468652063757272656e7420776f726b5f8201527f666c6f7720737461747573000000000000000000000000000000000000000000602082015250565b5f611dea602b8361138b565b9150611df582611d90565b604082019050919050565b5f6020820190508181035f830152611e1781611dde565b905091905056fea264697066735822122092ba36dafdf3d16bf953a385bda0578c063b76fe6dc2943e75651a62501ecb2b64736f6c63430008140033",
  "immutableReferences": {},
  "source": "// SPDX-License-Identifier: MIT\npragma solidity >=0.4.22 <0.9.0;\n\nimport \"@openzeppelin/contracts/access/Ownable.sol\";\n\ncontract Voting is Ownable {\n    // Structures de donnes\n    struct Voter {\n        bool isRegistered;\n        bool hasVoted;\n        uint votedProposalId;\n    }\n\n    struct Proposal {\n        string description;\n        uint voteCount;\n    }\n\n    enum WorkflowStatus {\n        RegisteringVoters,\n        ProposalsRegistrationStarted,\n        ProposalsRegistrationEnded,\n        VotingSessionStarted,\n        VotingSessionEnded,\n        VotesTallied\n    }\n\n    // Variables\n    WorkflowStatus public workflowStatus;\n    uint public winningProposalId;\n\n    mapping(address => Voter) public voters;\n    Proposal[] public proposals;\n\n    // vnements\n    event VoterRegistered(address indexed voterAddress);\n    event WorkflowStatusChange(WorkflowStatus previousStatus, WorkflowStatus newStatus);\n    event ProposalRegistered(uint proposalId);\n    event Voted(address indexed voter, uint proposalId);\n\n    // Modificateur pour s'assurer que le workflow suit l'ordre appropri\n    modifier inState(WorkflowStatus _status) {\n        require(workflowStatus == _status, \"Invalid workflow status\");\n        _;\n    }\n\n    // Constructeur\n    constructor() Ownable(msg.sender) {\n        workflowStatus = WorkflowStatus.RegisteringVoters;\n    }\n\n    // Fonction pour inscrire un lecteur\n    function registerVoter(address _voterAddress) external onlyOwner inState(WorkflowStatus.RegisteringVoters) {\n        require(!voters[_voterAddress].isRegistered, \"Voter already registered\");\n        voters[_voterAddress].isRegistered = true;\n        emit VoterRegistered(_voterAddress);\n    }\n\n    // Fonction pour dmarrer la session d'enregistrement des propositions\n    function startProposalsRegistration() external onlyOwner inState(WorkflowStatus.RegisteringVoters) {\n        workflowStatus = WorkflowStatus.ProposalsRegistrationStarted;\n        emit WorkflowStatusChange(WorkflowStatus.RegisteringVoters, WorkflowStatus.ProposalsRegistrationStarted);\n    }\n\n    // Fonction pour enregistrer une proposition\n    function registerProposal(string memory _description) external inState(WorkflowStatus.ProposalsRegistrationStarted) {\n        require(voters[msg.sender].isRegistered, \"Sender is not a registered voter\");\n        proposals.push(Proposal({\n            description: _description,\n            voteCount: 0\n        }));\n        emit ProposalRegistered(proposals.length - 1);\n    }\n\n    // Fonction pour clturer la session d'enregistrement des propositions\n    function endProposalsRegistration() external onlyOwner inState(WorkflowStatus.ProposalsRegistrationStarted) {\n        workflowStatus = WorkflowStatus.ProposalsRegistrationEnded;\n        emit WorkflowStatusChange(WorkflowStatus.ProposalsRegistrationStarted, WorkflowStatus.ProposalsRegistrationEnded);\n    }\n\n    // Fonction pour dmarrer la session de vote\n    function startVotingSession() external onlyOwner inState(WorkflowStatus.ProposalsRegistrationEnded) {\n        workflowStatus = WorkflowStatus.VotingSessionStarted;\n        emit WorkflowStatusChange(WorkflowStatus.ProposalsRegistrationEnded, WorkflowStatus.VotingSessionStarted);\n    }\n\n    // Fonction pour voter sur une proposition\n    function vote(uint _proposalId) external {\n        require(voters[msg.sender].isRegistered, \"Sender is not a registered voter\");\n        require(!voters[msg.sender].hasVoted, \"Sender has already voted\");\n        require(_proposalId < proposals.length, \"Invalid proposal ID\");\n\n        voters[msg.sender].hasVoted = true;\n        voters[msg.sender].votedProposalId = _proposalId;\n        proposals[_proposalId].voteCount++;\n        emit Voted(msg.sender, _proposalId);\n    }\n\n    // Fonction pour clturer la session de vote\n    function endVotingSession() external onlyOwner inState(WorkflowStatus.VotingSessionStarted) {\n        workflowStatus = WorkflowStatus.VotingSessionEnded;\n        emit WorkflowStatusChange(WorkflowStatus.VotingSessionStarted, WorkflowStatus.VotingSessionEnded);\n    }\n\n    // Fonction pour comptabiliser les votes et dterminer le gagnant\n    function tallyVotes() external onlyOwner inState(WorkflowStatus.VotingSessionEnded) {\n        uint maxVoteCount = 0;\n        for (uint i = 0; i < proposals.length; i++) {\n            if (proposals[i].voteCount > maxVoteCount) {\n                maxVoteCount = proposals[i].voteCount;\n                winningProposalId = i;\n            }\n        }\n\n        workflowStatus = WorkflowStatus.VotesTallied;\n        emit WorkflowStatusChange(WorkflowStatus.VotingSessionEnded, WorkflowStatus.VotesTallied);\n    }\n\n    // Fonction pour obtenir le gagnant\n    function getWinner() external view returns (uint) {\n        require(workflowStatus == WorkflowStatus.VotesTallied, \"Votes have not been tallied yet\");\n        return winningProposalId;\n    }\n\n    // Fonction pour reset le contrat pour un nouveau vote\n    function resetContract() external onlyOwner {\n        require(workflowStatus == WorkflowStatus.VotesTallied, \"Cannot reset in the current workflow status\");\n        \n        // Rinitialiser toutes les donnes du contrat\n        for (uint i = 0; i < proposals.length; i++) {\n            delete proposals[i];\n        }\n        \n        // Copier chaque lment de la mmoire (proposals) dans le stockage (proposals)\n        uint proposalsCount = proposals.length;\n        for (uint j = 0; j < proposalsCount; j++) {\n            Proposal storage proposal = proposals[j];\n            proposal.description = '';\n            proposal.voteCount = 0;\n        }\n        \n        winningProposalId = 0;\n\n        workflowStatus = WorkflowStatus.RegisteringVoters;\n        emit WorkflowStatusChange(WorkflowStatus.VotesTallied, WorkflowStatus.RegisteringVoters);\n    }\n}",
  "sourcePath": "C:\\Users\\admin\\Desktop\\system-vote\\truffle\\contracts\\Voting.sol",
  "compiler": {
    "name": "solc",
    "version": "0.8.20+commit.a1b79de6.Emscripten.clang"
  },
  "schemaVersion": "3.4.16",
  "updatedAt": "2023-10-16T15:57:57.097Z",
  "networkType": "ethereum",
  "devdoc": {
    "errors": {
      "OwnableInvalidOwner(address)": [
        {
          "details": "The owner is not a valid owner account. (eg. `address(0)`)"
        }
      ],
      "OwnableUnauthorizedAccount(address)": [
        {
          "details": "The caller account is not authorized to perform an operation."
        }
      ]
    },
    "kind": "dev",
    "methods": {
      "owner()": {
        "details": "Returns the address of the current owner."
      },
      "renounceOwnership()": {
        "details": "Leaves the contract without owner. It will not be possible to call `onlyOwner` functions. Can only be called by the current owner. NOTE: Renouncing ownership will leave the contract without an owner, thereby disabling any functionality that is only available to the owner."
      },
      "transferOwnership(address)": {
        "details": "Transfers ownership of the contract to a new account (`newOwner`). Can only be called by the current owner."
      }
    },
    "version": 1
  },
  "userdoc": {
    "kind": "user",
    "methods": {},
    "version": 1
  }
}